:100000000C9465030C94B6180C948F180C948D0303
:100010000C948D030C948D030C9435190C948D0362
:100020000C948D030C948D030C948D030C948D0310
:100030000C948D030C948D030C948D030C948D0300
:100040000C9445180C948D030C9403190C94DD1832
:100050000C948D030C948D030C948D030C948D03E0
:100060000C9426170C948D0300407A10F35A00A0CC
:10007000724E18090010A5D4E80000E87648170071
:1000800000E40B54020000CA9A3B000000E1F505B1
:10009000000080969800000040420F000000A086FB
:1000A00001000000102700000000E803000000002D
:1000B0006400000000000A000000000001000000D1
:1000C00000002C76D888DC674F0823DFC1DFAE59EB
:1000D000E1B1B796E5E3E453C63AE651997696E87E
:1000E000E6C28426EB898C9B62ED407C6FFCEFBC02
:1000F0009C9F40F2BAA56FA5F490055A2AF75C932D
:100100006B6CF9676DC11BFCE0E40D47FEF520E662
:10011000B500D0ED902E0300943577050080841E45
:10012000080000204E0A000000C80C333333330FA0
:10013000986E12831141EF8D2114893BE65516CF3D
:10014000FEE6DB18D1844B381BF77C1D901DA4BB49
:10015000E424203284725E228100C9F124ECA1E5FE
:100160003D2754534D3A494E49540A002154534DAA
:100170003A494E49543A545350204641494C0A009A
:100180005453463A5349443A4F4B2C49443D257504
:100190000A00215453463A5349443A4641494C2CAB
:1001A00049443D25750A0054534D3A494E49543A45
:1001B0005354415449443D25750A0054534D3A491E
:1001C0004E49543A545350204F4B0A0054534D3A21
:1001D000465041520A002154534D3A465041523A3A
:1001E0004E4F205245504C590A002154534D3A4627
:1001F0005041523A4641494C0A0054534D3A4650F8
:1002000041523A4F4B0A0054534D3A49443A5245F1
:10021000510A0054534D3A49440A002154534D3A6F
:1002200049443A4641494C0A0054534D3A49443AEC
:100230004F4B0A0054534D3A55504C0A0021545329
:100240004D3A55504C3A4641494C0A0054534D3AA8
:1002500055504C3A444757432C4F3D25752C4E3D45
:1002600025750A0054534D3A55504C3A4F4B0A00ED
:1002700054534D3A52454144593A49443D25752C11
:100280005041523D25752C4449533D25750A0021A6
:1002900054534D3A52454144593A55504C204641E9
:1002A000494C2C534E500A005453463A5444493A50
:1002B00054534C0A0054534D3A4641494C3A444930
:1002C000530A0054534D3A4641494C3A434E543D2B
:1002D00025750A0054534D3A4641494C3A52452D32
:1002E000494E49540A00215453463A5254453A4E15
:1002F000324E204641494C0A005453463A52544526
:100300003A4E324E204F4B0A00215453463A525433
:10031000453A46504152204143544956450A00212E
:100320005453463A534E443A544E520A002573549D
:1003300053463A4D53473A53454E442C25752D2587
:10034000752D25752D25752C733D25752C633D2543
:10035000752C743D25752C70743D25752C6C3D25D0
:10036000752C73673D25752C66743D25752C73744B
:100370003D25733A25730A004D434F3A5245473A9B
:100380005245510A00214D434F3A50524F3A524381
:100390003D25750A0020486F6D654173736973745C
:1003A000616E74200052656C61697320436F6E74D6
:1003B000726F6C6500202056657273696F6E2E2017
:1003C000312E300052656C61697320436F6E747218
:1003D0006F6C650000000000230026002900322E0B
:1003E000332E320A00207C5F5C2F602C0A0702202B
:1003F0000220B287100340012000240222100222B2
:100400000202200222002220020220222710134191
:100410000101010322203040203052034022140207
:100420000310522402217101001010121012221028
:1004300010022401010322030020010100322037B1
:1004400012100121322601284032221210121222EB
:10045000432224121001222470C122240F0F54536E
:10046000463A5755523A4D533D256C750A004D4357
:100470004F3A42474E3A494E4954204F4B2C545321
:10048000503D25750A004D434F3A42474E3A53546A
:10049000500A004D434F3A42474E3A4246520A00F4
:1004A0004D434F3A42474E3A494E4954204E4F44ED
:1004B000452C43503D524E4E4E412D2D2D2C465134
:1004C0003D25752C52454C3D25752C5645523D32E7
:1004D0002E332E320A002020202020202020202011
:1004E000202020202020002020202020202020202C
:1004F00020202020202020004D434F3A50494D3AE3
:100500004E4F4445205245473D25750A002154531E
:10051000463A4D53473A52454C204D53472C4E5284
:1005200045500A005453463A4D53473A52435620D9
:1005300043420A005453463A4D53473A42430A0055
:100540005453463A4D53473A4543484F0A002154C5
:1005500053463A4D53473A504F4E47205245435623
:100560002C494E4143544956450A005453463A4D8E
:1005700053473A504F4E4720524543562C48503D22
:1005800025750A005453463A4D53473A50494E4751
:1005900045442C49443D25752C48503D25750A009D
:1005A000215453463A4D53473A4650415220494E02
:1005B0004143544956450A005453463A4D53473A2D
:1005C00046504152204F4B2C49443D25752C443D0B
:1005D00025750A005453463A4D53473A4543484F10
:1005E000205245510A005453463A4D53473A52451A
:1005F00041442C25752D25752D25752C733D2575AC
:100600002C633D25752C743D25752C70743D257526
:100610002C6C3D25752C73673D25753A25730A00B2
:10062000537461747573206D656E753A20002053A4
:1006300054415455532052454C4149532000000029
:100640000008000201000003040700000000000091
:100650000000214D434F3A5741493A52433D2575D9
:100660000A00214D434F3A5741493A52433D2575BF
:100670000A00214D434F3A534E443A4E4F444520D1
:100680004E4F54205245470A000000000025002824
:10069000002B0000000000240027002A00040404AE
:1006A000040404040402020202020203030303031B
:1006B00003010204081020408001020408102001F8
:1006C0000204081020003F19F71A11241FBECFEFB3
:1006D000D8E0DEBFCDBF11E0A0E0B1E0E8EFF6E486
:1006E00002C005900D92A43FB107D9F724E0A4EF12
:1006F000B1E001C01D92A536B207E1F713E0C4E6F0
:10070000D3E004C02197FE010E948822C336D1079E
:10071000C9F70E94DF190C946F230C940000E8E1E4
:10072000F3E0A089B18982E08C93A485B5851C9201
:10073000A685B78580E18C93108EA489B58986E063
:100740008C93A289B3898C9180618C93A289B3899F
:100750008C9188608C93A289B3898C9180688C93EA
:100760000288F389E02D80818F7D8083089590E059
:10077000FC01EF54F94F24918356994FFC01849169
:10078000882399F090E0880F991FFC01ED56F94FEE
:10079000A591B491FC01E757F94F859194918FB7DA
:1007A000F894EC91E22BEC938FBF0895942FEFE136
:1007B000F4E030910803318382836683258344818A
:1007C000487F492B477E4483CF01089520915D02E5
:1007D000260F3327331F21323105ECF42091A80274
:1007E000FC0190E080E0243069F082E00895A0915F
:1007F0005D022191AC01455C5D4FA40FB52FB11D89
:100800002C930196861798F380915D02680F609390
:100810005D0280E0089581E00895089508950895A7
:10082000E091390280913802E81730F4F0E0E85E98
:10083000FD4F808190E008958FEF9FEF0895909194
:100840003902809138022FEF3FEF981748F4E92FD3
:10085000F0E0E85EFD4F208130E09F5F9093390229
:10086000C90108958091380290913902891B990B32
:100870000895CF92DF92EF92FF920F931F93CF9341
:10088000DF937C01CB018A012091AE02222389F003
:10089000EB016B01C40ED51ECC15DD0569F0699125
:1008A000D701ED91FC910190F081E02DC7010995F0
:1008B000F3CF642F0E94E603C801DF91CF911F910F
:1008C0000F91FF90EF90DF90CF900895CF93DF933B
:1008D0001F92CDB7DEB769832091AE022223F9F0D3
:1008E0002091D102203258F021E030E0FC01338326
:1008F000228390E080E00F90DF91CF910895809166
:10090000AF02E82FF0E0E055FD4F998190838F5FB3
:100910008093AF028093D10281E090E0ECCF61E060
:10092000CE0101960E94E603F7CF833081F028F4D0
:10093000813099F08230A9F008958730A9F088308D
:10094000C9F08430B1F4809180008F7D03C0809124
:1009500080008F7780938000089584B58F7784BD61
:10096000089584B58F7DFBCF8091B0008F77809301
:10097000B00008958091B0008F7DF9CF1F93CF9381
:10098000DF93282F30E0F901E25CF94F8491F901FF
:10099000EF54F94FD491F901E356F94FC491CC23A8
:1009A000A9F0162F81110E949504EC2FF0E0EE0FB4
:1009B000FF1FE757F94FA591B4918FB7F894EC91C9
:1009C000111108C0D095DE23DC938FBFDF91CF914A
:1009D0001F910895DE2BF8CF1092A80281E080933A
:1009E000A7021092820261E082E10E94BE0461E0EF
:1009F00083E10E94BE04E9EBF0E080818E7F80837A
:100A000080818D7F808388E48093B80085E4809323
:100A1000BC000895CF93DF9391E090933A0288232E
:100A2000B9F0C091B800D091BA008091BC008A7B27
:100A30008093BC0060E082E10E94BE0460E083E13C
:100A40000E94BE040E94EC04D093BA00C093B80088
:100A5000DF91CF9108953FB7F8948091140290915F
:100A60001502A0911602B091170226B5A89B05C0E9
:100A70002F3F19F00196A11DB11D3FBFBA2FA92F1D
:100A8000982F8827BC01CD01620F711D811D911D1A
:100A900042E0660F771F881F991F4A95D1F7089586
:100AA000CF92DF92EF92FF920F931F93CF93DF933A
:100AB000D091D10281E0D13208F09CC0C091D00227
:100AC0000E942B056B017C018091A80281116CC0F2
:100AD00082E08093A80281E08093A7028FEF809349
:100AE000A6021092A502D093A402A0EBB2E0E4E823
:100AF000F2E080E0D8138DC01092830280918302CF
:100B0000CC0FC82BC093830280918202813009F000
:100B100084C0109282020E942B056B017C0180919F
:100B200083028093BB008091AA029091AB02A091B6
:100B3000AC02B091AD02892B8A2B8B2BA1F00E94C5
:100B40002B050091AA021091AB022091AC023091CA
:100B5000AD026C197D098E099F0906171707280732
:100B6000390708F442C08091BC0083FDD8CF85ECE2
:100B70008093BC000E942B056B017C018091A80230
:100B8000823009F44CC08091A6028F3F09F469C0FD
:100B90008091A602803209F466C08091A60280335B
:100BA00009F463C084E026C08091AA029091AB0250
:100BB000A091AC02B091AD02892B8A2B8B2B09F44A
:100BC00083CF0E942B050091AA021091AB022091C5
:100BD000AC023091AD026C197D098E099F09061790
:100BE00017072807390708F06FCF8091A9020E94E4
:100BF0000A0585E01092AF021092D1021092AE0267
:100C0000DF91CF911F910F91FF90EF90DF90CF90E8
:100C100008959D9191938F5F6DCF85EEA9CF8091BF
:100C2000AA029091AB02A091AC02B091AD02892BC7
:100C30008A2B8B2B09F4A2CF0E942B050091AA02CC
:100C40001091AB022091AC023091AD026C197D097C
:100C50008E099F09061717072807390708F08ECF56
:100C6000C4CF80E0C7CF82E0C5CF83E0C3CF8F92EF
:100C70009F92AF92BF92CF92DF92EF92FF926B0161
:100C80007C010E942B054B015C01C114D104E104DD
:100C9000F104B9F00E942B05681979098A099B09AA
:100CA000683E73408105910580F321E0C21AD108A6
:100CB000E108F10888EE880E83E0981EA11CB11CA3
:100CC000E4CFFF90EF90DF90CF90BF90AF909F90D8
:100CD0008F9008952FB7F8946091100270911102CF
:100CE00080911202909113022FBF08950895EF9200
:100CF000FF920F931F93CF93DF938C017B01D0E082
:100D0000C0E0F701EC0FFD1F6491662361F0D8018C
:100D1000ED91FC910190F081E02DC8010995892B9E
:100D200011F02196EECFCE01DF91CF911F910F915F
:100D3000FF90EF900895AF92BF92CF92DF92EF9223
:100D4000FF920F931F93CF93DF936C017B018B0175
:100D5000040F151FEB015E01AE18BF08C017D107C5
:100D600059F06991D601ED91FC910190F081E02D4F
:100D7000C6010995892B79F7C501DF91CF911F91A4
:100D80000F91FF90EF90DF90CF90BF90AF900895BC
:100D9000FC01538D448D252F30E0842F90E0821B81
:100DA000930B541710F0CF96089501970895FC0106
:100DB000918D828D981761F0A28DAE0FBF2FB11D5E
:100DC0005D968C91928D9F5F9F73928F90E00895B6
:100DD0008FEF9FEF0895FC01918D828D981731F070
:100DE000828DE80FF11D858D90E008958FEF9FEFC4
:100DF0000895FC01918D228D892F90E0805C9F4F9A
:100E0000821B91098F739927089588E193E00E94CE
:100E1000F90621E0892B09F420E0822F0895FC01D6
:100E2000A48DA80FB92FB11DA35ABF4F2C91848D4B
:100E300090E001968F739927848FA689B7892C93A8
:100E4000A089B1898C91837080648C93938D848DFB
:100E5000981306C00288F389E02D80818F7D8083FE
:100E60000895EF92FF920F931F93CF93DF93EC01BE
:100E700081E0888F9B8D8C8D98131AC0E889F98941
:100E8000808185FF15C09FB7F894EE89FF89608344
:100E9000E889F98980818370806480839FBF81E0C5
:100EA00090E0DF91CF911F910F91FF90EF90089507
:100EB000F62E0B8D10E00F5F1F4F0F731127E02EE2
:100EC0008C8D8E110CC00FB607FCFACFE889F9891A
:100ED000808185FFF5CFCE010E940F07F1CFEB8D0A
:100EE000EC0FFD2FF11DE35AFF4FF0829FB7F894EE
:100EF0000B8FEA89FB8980818062CFCFCF93DF930C
:100F0000EC01888D8823B9F0AA89BB89E889F98921
:100F10008C9185FD03C0808186FD0DC00FB607FC56
:100F2000F7CF8C9185FFF2CF808185FFEDCFCE0189
:100F30000E940F07E9CFDF91CF91089580E090E004
:100F4000892B29F00E94050781110C940000089557
:100F5000FC0123812223E1F08181682B608382815F
:100F600091E09093AE028093D0021092AF02109263
:100F7000D1028CE093E00E9466040E945005282F65
:100F800030E081E090E0232B11F090E080E00895C4
:100F900030E020E0F6CFEF92FF920F931F93CF93B4
:100FA0008C01FC0184E0C0E0262F30E060FF02C02D
:100FB0009589C92BB9017595679581503196811135
:100FC000F3CF413011F4F8014489F8016585C62B4F
:100FD000C42B7801FEE0EF0EF11CF80162896C2B46
:100FE000C7010E94A807F801628960956C23C701B8
:100FF000CF911F910F91FF90EF900C94A8070F9342
:101000001F93CF93DF93062F0F70423041F440E0DF
:10101000602FDF91CF911F910F910C94CB07142F6C
:10102000EC0170E084E0759567958A95E1F7CE0153
:101030000E94CB07412F602FCE01EBCFFC018485AE
:101040008823A1F0218532852115310521F4611114
:1010500007C0158606C021303105D9F76111F9CFD7
:1010600085876585CF010E960C94A807089521E029
:1010700001C0220F6A95EAF7DC011C962C931C979D
:101080001A965C934E931997ED91FC910484F58523
:10109000E02D60E00994DC01ED91FC910684F78578
:1010A000E02D41E0099581E090E00895DC01ED91AB
:1010B000FC910684F785E02D40E009940F931F937F
:1010C000CF93DF93CDB7DEB728970FB6F894DEBF86
:1010D0000FBECDBF00913C0110913D0120913E011A
:1010E00030913F010D831E832F833887009140018B
:1010F00010914101209142013091430109831A83EB
:101100002B833C839091BC03691710F06FEF690F3C
:10111000262F30E04091BD032C0F3D1FF9014031D7
:1011200099F4943089F46181680F606885EB93E0ED
:1011300028960FB6F894DEBF0FBECDBFDF91CF91DA
:101140001F910F910C9456086581EECFEF92FF929C
:101150000F931F93CF93DF938B0198E0899FB0018A
:101160001124606485EB93E00E94560883E790E0C9
:101170000197F1F7E801085F1F4F8BE9E82EF12C8A
:10118000699185EB93E00E944B08C7010197F1F745
:10119000C017D107A9F7DF91CF911F910F91FF9051
:1011A000EF9008950F931F93CF93DF93EC0142309C
:1011B00018F08C8188608C834F836887222329F004
:1011C000413019F48C8184608C8364E670E080E0A7
:1011D00090E00E9437066C8164FD5CC0E881F98173
:1011E0000684F785E02D42E063E0CE0109958BE4AB
:1011F00096E40197F1F7E881F9810684F785E02DFF
:1012000042E063E0CE01099503E512E0C8010197D1
:10121000F1F7E881F9810684F785E02D42E063E08B
:10122000CE010995C8010197F1F7E881F98106849B
:10123000F785E02D42E062E0CE010995C8010197F3
:10124000F1F76C816062CE010E9456088BEE90E04F
:101250000197F1F784E08D836CE0CE010E9456087F
:1012600061E0CE010E9456088BE39FE10197F1F700
:1012700082E08E8366E0CE010E945608E881F98103
:101280000484F585E02D6FEFCE01DF91CF911F91A2
:101290000F9109946062CE010E9456088BE496E497
:1012A0000197F1F76C816062CE010E94560803E558
:1012B00012E0C8010197F1F76C816062CE010E94D3
:1012C0005608BCCFEF92FF920F931F93CF93DF93FB
:1012D000EC01062FF42EE22E8B85888B10923902BA
:1012E000109238021092AF021092D1020E94EC04C8
:1012F0008DE094E090935C0280935B028EE094E03A
:101300009093600280935F02888911E01093AE028F
:101310008093D0020E94500581111CC0198B8CE073
:1013200093E00E941F048E878989882339F01F86E5
:101330001C8260E0CE010E960E94A8072E2D4F2D34
:10134000602FCE01DF91CF911F910F91FF90EF9011
:101350000C94D208198AE8CF08950895089590E072
:1013600080E0089560E080E00E945E0867EE74E02F
:1013700085EB93E00E94770661E080E00E945E08C2
:1013800066ED74E085EB93E00C947706FC018381B5
:1013900087708860838384818F7180628483678390
:1013A000CF010895FC0183818695869586958A31C3
:1013B00008F089E10895E0910102F091020230976E
:1013C00021F00280F381E02D099408950F931F937B
:1013D0000E946A0600910302109104022091050206
:1013E00030910602601B710B820B930B1F910F91C2
:1013F00008959C0180910102909102028217930747
:10140000F1F090910B029F7190930B0230930202C6
:1014100020930102E0910102F0910202309721F045
:101420000190F081E02D09950E946A066093030205
:1014300070930402809305029093060208958091B0
:101440000B02805E80930B02E5CF8EBD00000DB4D1
:1014500007FEFDCF8EB50895EF92FF920F931F9375
:10146000CF93DF93362F41E050E060E070E07A01E7
:101470008B0104C0EE0CFF1C001F111F8A95D2F7D0
:10148000C70120910002332331F1822B80930002A7
:1014900060E088E00E94BE04D0910002C8E06D2F99
:1014A000661F6627661F87E00E94BE04DD0F61E0AD
:1014B00084E00E94BE0460E084E00E94BE04C1504B
:1014C00071F761E088E0DF91CF911F910F91FF905C
:1014D000EF900C94BE0480958223D8CF0F931F9376
:1014E000CF93DF93EC018C81829586958770A9F468
:1014F000CE010E94D209482F50E0BE01695F7F4FA4
:1015000085ED92E00E946023CE010E94D209E82F6F
:10151000F0E0EB52FD4F108209C0813071F48F81F1
:101520004AE065ED72E090E00E94911C85ED92E04A
:10153000DF91CF911F910F910895823031F44AE0ED
:1015400065ED72E08F819885EFCF833041F44AE0FA
:1015500065ED72E08F8198850E94EA1CE7CF8430A8
:1015600051F46F81788589859A852AE045ED52E0AE
:101570000E949C1CDBCF853051F46F817885898572
:101580009A852AE045ED52E00E94C81CCFCF10E0BA
:10159000873071F42B85293008F028E06F81788539
:1015A00089859A8505ED12E042E00E94091BBECFB5
:1015B000CE010E94D209181738F5E12FF0E09F0103
:1015C000220F331FD901AB52BD4FEC0FFD1F878196
:1015D000082E000C990B44E0959587954A95E1F704
:1015E0008F708A3068F4805D8C932A523D4F8781DA
:1015F0008F708A3038F4805DF90180831F5FD8CF07
:10160000895CF2CF895CF8CFE82FF0E0EE0FFF1F86
:1016100080CFFC0101900020E9F73197AF01481B12
:10162000590BBC0188E193E00C949B068F929F922A
:10163000AF92BF920F931F93CF93DF93CDB7DEB7D7
:10164000A1970FB6F894DEBF0FBECDBF19A24230EE
:1016500008F44AE08E010F5D1F4F842E912CB12CAF
:10166000A12CA50194010E946622E62FB901CA01AE
:10167000EA30F4F4E05DD801EE938D01232B242BA6
:10168000252B79F790E080E0109719F0CD010E94AA
:10169000090BA1960FB6F894DEBF0FBECDBFDF9148
:1016A000CF911F910F91BF90AF909F908F90089511
:1016B000E95CE1CF0F931F93CF93DF93EC018B0194
:1016C000E0E06115710549F0FB0101900020E9F7A8
:1016D0003197E61BEA3108F0E9E18B81877098E0E9
:1016E000E99FF0011124E82BEB838C818F718C83AF
:1016F000CE010E94D209482F50E0B801CE010796D2
:101700000E946023CE010E94D2098C0F9D2F911D53
:10171000FC011782CE01DF91CF911F910F910895A7
:1017200085ED8093BC008091AA029091AB02A091BC
:10173000AC02B091AD020796A11DB11D23E0B69594
:10174000A795979587952A95D1F72091BC0024FD00
:1017500003C01092A80208954091AA025091AB02D2
:101760006091AC027091AD02452B462B472B69F37B
:101770000097A105B10541F025E32A95F1F7000096
:101780000197A109B109E1CF8091A9020C940A0542
:101790000E944B23EF92FF920F931F93CF93DF93FF
:1017A000EC017B01198218821B821A821D821C8225
:1017B000FB0101900020E9F731978F01061B170B01
:1017C000B8016F5F7F4F90E080E00E948E2200970B
:1017D000B9F0998388831B830A832C813D81232B55
:1017E00011F4FC0110821D830C83B701888199815B
:1017F000DF91CF911F910F91FF90EF900C9459239F
:1018000088819981009711F00E94C31B1982188268
:101810001D821C821B821A82DF91CF911F910F9132
:10182000FF90EF900895FC01248122952695277062
:10183000213011F487810895211104C007960E9478
:101840004C1C089580E00895CF93DF93FC01108233
:1018500011821282148215821682DC0117968AE1A7
:10186000ED0119928A95E9F782E08383DF91CF91A8
:101870000895DF92EF92FF920F931F93CF93DF9320
:10188000CDB7DEB7A1970FB6F894DEBF0FBECDBFC0
:101890000E94B20960E080E00E945E086EE276E09D
:1018A00085EB93E00E9477068DE9E82EFF24F39400
:1018B00010E002E0CE0101960E94240C1F830E83EB
:1018C000C7010E940522D82E61E084E0810F0E94AA
:1018D0005E0881E060E0D81261E085EB93E00E9451
:1018E0004B081F5F8FEFE81AF80A183019F780913C
:1018F0000E028093310160E276E088E193E00E947D
:10190000770660910E0270E090E080E04AE00E946D
:10191000160BA1960FB6F894DEBF0FBECDBFDF91B8
:10192000CF911F910F91FF90EF90DF900895BF929C
:10193000CF92DF92EF92FF920F931F93CF93DF939B
:101940007B01042FB22E91E59CBD91E09DBD2A98AC
:10195000E3E2F0E03197F1F70E94250A182FE70142
:101960000150A8F0BB2051F08FEF0E94250A182FDC
:10197000E114F104A9F388832196F2CF6E018FEF71
:10198000C81AD80A88810E94250AE601E9CF2A9A56
:1019900083E290E00197F1F7812FDF91CF911F91C2
:1019A0000F91FF90EF90DF90CF90BF900895CF936D
:1019B000DF931F92CDB7DEB7698320E041E0BE011F
:1019C0006F5F7F4F0E94970C0F90DF91CF9108952A
:1019D0006FE080E20E94D70C609108016F3F19F020
:1019E0008AE20E94D70C299A089521E041E070E034
:1019F00060E00C94970C86E00E94F50C853231F47F
:101A000085E00E94F50C91E08C3409F090E0892F7C
:101A1000089520E040E070E060E00C94970CEF92B5
:101A2000FF920F931F93CF93DF93CDB7DEB7C857C5
:101A3000D1090FB6F894DEBF0FBECDBF8E010F5790
:101A40001F4FF801E190F1908F010E946A064AE071
:101A50000E94160B8CE791E00E94090B9801A701E8
:101A600068E770E0CE0101960E94041DCE01019648
:101A70000E94090B88E193E00E947E07C858DF4F5F
:101A80000FB6F894DEBF0FBECDBFDF91CF911F918F
:101A90000F91FF90EF9008959F92AF92BF92CF92D7
:101AA000DF92EF92FF920F931F93CF93DF93F82E65
:101AB000EB018091080388838B8100E282FD05C0E1
:101AC000CB010E94D20907E0080F80910B0311E0BF
:101AD00080FD03C08FEFF81210E0209709F4BBC01F
:101AE000299883E092E00197F1F76EE080E20E948E
:101AF000D70C8BE891E00197F1F76F2D8AE20E94F5
:101B0000D70C6F2D80E30E94D70C81EE0E94090D47
:101B1000112321F060E584E20E94D70C20E0402FE1
:101B2000BE0180EA0E94970C299AD12CC12C8FEF1C
:101B30000E94090D807349F49FEFC916D90629F058
:101B4000A8958FEFC81AD80AF2CF299860E787E2E4
:101B50000E94D70C082F84FF03C081EE0E94090D5C
:101B6000112321F06FE584E20E94D70C0E94E80C5B
:101B700005FD73C0012F8C818770833039F48D810E
:101B80002EE7A22E21E0B22E813121F0CE010E945B
:101B90006E0A5C0199E8C92E91E0D92E002321F04C
:101BA00086E8C82E81E0D82E80910C028F70982E86
:101BB000EB80E2FAEE24E0F8CE010E94D2099C818B
:101BC000F92FF295F695F770ED8197707E816A8115
:101BD000588149812EE831E0111106C020E931E039
:101BE000002311F023EF31E0BF92AF92DF92CF924A
:101BF0001F929F921F92EF921F928F931F92FF93BB
:101C00001F92EF931F929F931F927F931F926F9348
:101C10001F92FF921F925F931F924F933F932F93B8
:101C20008DE293E09F938F930E940F0D8DB79EB727
:101C30004E960FB6F8949EBF0FBE8DBF802FDF91DA
:101C4000CF911F910F91FF90EF90DF90CF90BF90B9
:101C5000AF909F90089500E08ECF01E08CCF0F935E
:101C60001F93CF93DF938C01FC01828190910B0233
:101C700090FF12C08F3F09F443C089E093E09F9327
:101C80008F930E940F0D0F900F90C0E08C2FDF916B
:101C9000CF911F910F910895D09109038823D9F016
:101CA0008F3F71F1B8010E944C0DC82F882349F075
:101CB00089EF92E09F938F930E940F0D0F900F90EA
:101CC000E5CF86EE92E09F938F930E940F0DD09107
:101CD00009030F900F90B8018D2F0E944C0DC82F53
:101CE000809109038D13D2CF80910C02C1110AC0DB
:101CF00091E0980F9F70807F892B80930C02C6CF54
:101D0000DFEFE9CF807F80930C02C1E0BFCF20914D
:101D10000B0222FD0C942F0E8FE193E09F938F9383
:101D20000E940F0D0F900F9080E00895CF92DF92E8
:101D3000EF92FF920E94E6096B017C0126E143E0ED
:101D400050E06FEF80E00E94D603FC018381877032
:101D50008062838384818F71806A8483C782D08606
:101D6000E186F286CF01FF90EF90DF90CF900C9448
:101D7000870E4F925F926F927F928F929F92AF9257
:101D8000BF92CF92DF92EF92FF920F931F93CF9368
:101D9000DF93CDB7DEB7A1970FB6F894DEBF0FBEC5
:101DA000CDBF0E946A06AB01BC018091FA019091FF
:101DB000FB01A091FC01B091FD0180589141A94C1B
:101DC000BF4F84179507A607B70760F40E946A06FD
:101DD0006093FA017093FB018093FC019093FD01E5
:101DE0000E94960E90910E028091310198130E94EC
:101DF000390C10E000E092E0892E23E4E22E26E088
:101E0000F22E36EBC32E36E0D32E42EAA42E46E065
:101E1000B42ECE0101960E94240C0F838E82C8013D
:101E200083569E4F0E940522813009F03FC00E94D8
:101E30006A064090F6015090F7016090F8017090AA
:101E4000F90164197509860997096D3771058105CE
:101E5000910560F1F7018491F6019490F501749079
:101E600070E060E0772099F081110E949504E72DE1
:101E7000F0E0EE0FFF1FEC52FC4FA591B4918C9156
:101E8000982291E080E009F490E0692F782FF1E04A
:101E90006F2785E00E94BE040E946A066093F601E7
:101EA0007093F7018093F8019093F9010F5F1F4F32
:101EB0000830110509F0ADCFA1960FB6F894DEBF3A
:101EC0000FBECDBFDF91CF911F910F91FF90EF908B
:101ED000DF90CF90BF90AF909F908F907F906F904A
:101EE0005F904F900895CF93C82F262F50E040E089
:101EF000682F80E00E94D60362E971E0CF3F11F0C5
:101F000063EF71E00E945A0BCF910C94870EFC0195
:101F10008091080381839481907F91609483809164
:101F2000D40280FF03C0CF010C94870E82E796E0B5
:101F30009F938F930E940F0D0F900F9080E0089554
:101F4000EF92FF920F931F93CF93DF93CDB7DEB73E
:101F5000A1970FB6F894DEBF0FBECDBF8C01FC0178
:101F60008681E82EF12C9581923009F44EC0903391
:101F700071F46091000270E002C0759567958A95D2
:101F8000E2F7609570956170C7010E942C0AF80114
:101F9000E6806091000270E00E2C02C07595679596
:101FA0000A94E2F7F62FF170FF2ECE0101960E94FF
:101FB000240CEF8282E08E836F2DCE0101960E9469
:101FC000C609CE0101960E94870FC8010E94130C1A
:101FD00061E0811101C060E0F801868190E08356E4
:101FE0009E4F0E941D2280910E028F5F80930E02F1
:101FF000A1960FB6F894DEBF0FBECDBFDF91CF9193
:102000001F910F91FF90EF900895C8010E94130C4B
:1020100061E08111B9CF60E0B7CFCF932BE043E00F
:1020200050E06FEF80E00E94D60368E971E00E9403
:102030005A0B0E94870E2CE043E050E06FEF80E0E7
:102040000E94D60365EA71E00E945A0B0E94870E37
:10205000C0E063E070E08C2F0E94730FCF5FC83048
:10206000C1F7CF9108952FE043E050E06FEF80E09B
:102070000E94D60363EF71E00E945A0BEFE1F4E097
:10208000838187708061838384818F71806C848376
:1020900081E087831086CF010E94870E8FE00E9427
:1020A000F61261E170E08FEF0E94730F26E043E0CB
:1020B00050E06FEF80E00E94D603609109030E9418
:1020C000C6090E94870E86E00E94F6120C940D103D
:1020D0002F923F924F925F927F928F929F92AF92F8
:1020E000BF92CF92DF92EF92FF920F931F93CF9305
:1020F000DF93CDB7DEB7A1970FB6F894DEBF0FBE62
:10210000CDBF86E0E82E22242A9492E0392E93E077
:10211000492E532C2BE6822E25E0922E87E10E9439
:10212000F50C80FD28C2EA94EE2009F424C221E0D7
:1021300041E070E060E080E60E94970C182F813249
:1021400020F082EE0E94090D10E021E0412F60E4B2
:1021500074E081E60E94970C60E487E20E94D70C4D
:1021600081E2E0E4F4E0DE01119601900D928A959F
:10217000E1F70C81802F8370823081F6CE010196C9
:102180000E94D20902FD89E1895F1813C7CF80E45C
:1021900094E00E94D209782E809144048770F82E32
:1021A0001091450400914104D0904004C090420435
:1021B00023E0821304C08EE791E0113121F080E426
:1021C00094E00E946E0AA72CB12C9F938F9380916C
:1021D000430482FB882780F91F928F931F927F927E
:1021E000809144048295869587701F928F931F92E9
:1021F0001F931F92FF92809146041F928F931F920C
:10220000CF921F92DF921F920F9386EE95E09F93DD
:102210008F930E940F0D80910C02806880930C02B6
:102220000FB6F894DEBF0FBECDBF80910803C81271
:1022300060C1F501E05CFB4F17828091440483FF8D
:1022400021C084ED95E09F938F930E940F0D81E252
:10225000E0E4F4E0AFE1B4E001900D928A95E1F79B
:1022600080912304877E80618093230480910803FA
:1022700080932004009321048FE194E00E94870E54
:102280000F900F909091440494FD2AC123E0F21224
:102290001FC18091450421EF280F233008F43ECF61
:1022A000143009F43BCF183091F510910B0210FF58
:1022B00027C080E494E00E94130C8F3F09F42ECFD6
:1022C0008F5F8F3F09F42ACF90910A03891708F096
:1022D00025CF11FD23CF80930A03009309031F929A
:1022E0008F931F920F9388EB95E09F938F930E949B
:1022F0000F0D0F900F900F900F900F900F900ECF2B
:1023000080EA95E09F938F930E940F0D31C11831A1
:10231000D9F480E494E00E94130C1F928F931F92D3
:102320000F9384E895E09F938F930E940F0D29E10E
:1023300043E050E06FEF802F0E94D60361E00E94DF
:10234000C6090E942F0ED5CF1931E1F480910B02FE
:1023500083FF14C0877F80930B0280E494E00E9487
:10236000130C80930D021F928F939F928F920E9465
:102370000F0D0F900F900F900F90D0CE8EE495E040
:102380009F93C1CF1E3109F4C9CE1D31C1F42FE195
:1023900043E050E06FEF80E00E94D603FC018381B0
:1023A00087708061838384818F718064848380E0FF
:1023B0009FEF90878783CF010E942F0EAFCE209191
:1023C000410421118AC08D3059F488E198E00FB69C
:1023D000F894A895809360000FBE90936000FFCFA3
:1023E0008B31A9F480E494E00E94130C91E08111F8
:1023F00001C090E08091D40290FB80F98093D402D8
:102400001F929F9328EF34E03F932F93B0CF8630F5
:1024100099F49091470481E0992319F09D3409F0D3
:1024200080E08093D30241E050E063E071E083ED0F
:1024300092E00E940D2272CE833119F40E94331073
:102440006DCE823119F40E94960E68CE8230C1F4AE
:1024500022E043E050E06FEF80E00E94D603FC01F1
:10246000838187708062838384818F71806A848393
:102470002782308641865286CF010E94870E4ECE3B
:10248000813001F520E030E0232B09F447CE92950E
:1024900096959770953059F460914704709148046F
:1024A0008091490490914A040E94000037CE911116
:1024B00005C087E494E00E946A1CF6CF60E070E0FB
:1024C000CB01F2CF8A3009F429CE8C3109F426CE23
:1024D00080E494E00E94A00F21CE8A31C9F71ECE7D
:1024E00080E495E09F938F930E940F0D0F900F90C3
:1024F000EFCF3FEF8DE095E0C31242CF84E395E04C
:102500009F938F930E940F0D0F900F9033E0F31263
:1025100021C080910B0282FF03C0173009F4FECD69
:10252000143109F0FBCD80910903D812F7CD0E9438
:102530006A067370882799270E94370625E143E0D1
:1025400050E06FEF802F0E94D603609109030E9434
:10255000C60932CF80910903D812E0CD84E295E01C
:102560009F938F930E940F0D80E494E00E94A00F30
:102570000F900F90D3CDA1960FB6F894DEBF0FBE8B
:10258000CDBFDF91CF911F910F91FF90EF90DF9022
:10259000CF90BF90AF909F908F907F905F904F9023
:1025A0003F902F9008958091F501882361F01F924C
:1025B0008F9385E893E09F938F930E940F0D0F9068
:1025C0000F900F900F908091F5018F5F8093F50130
:1025D000A8950E94DB0980910B0284FD0E9468107F
:1025E0008091F50181508093F5010895CF92DF929B
:1025F000EF92FF92CF93DF93D82F8091D20288235E
:1026000061F01F928F9382E696E09F938F930E94D2
:102610000F0D0F900F900F900F908091D2028F5F4F
:102620008093D2020E946A066B017C01809144046F
:10263000876080934404C0E00E946A066C197D099B
:102640008E099F09603D77408105910578F4C1119D
:102650000DC00E94D312809144048770833061F7CB
:10266000C1E0809145048D13E6CFE6CF8091D20280
:1026700081508093D2028C2FDF91CF91FF90EF9009
:10268000DF90CF900895CF92DF92EF92FF928091EA
:10269000D202882361F01F928F9382E596E09F9388
:1026A0008F930E940F0D0F900F900F900F908091BD
:1026B000D2028F5F8093D2020E946A066B017C0176
:1026C0000E946A066C197D098E099F09683B7B4050
:1026D0008105910518F40E94D312F2CF8091D202A5
:1026E00081508093D202FF90EF90DF90CF900895B9
:1026F000EF92FF920F931F93CF93DF93CDB7DEB787
:10270000A1970FB6F894DEBF0FBECDBF87E00E9441
:10271000B70388E00E94B70384E00E94B70386E015
:102720000E94B70385E00E94B7030E948F0320E058
:1027300042E060E185EB93E00E94620961E085EB95
:1027400093E00E9456088BE39FE10197F1F76FEF4A
:1027500085EB93E00E941E0865E271E080E00E9434
:10276000A6086DE171E081E00E94A60860E086E0C5
:102770000E94BE0410E000E082E0E82ECE01019647
:102780000E94240C0F83EE82C80183569E4F0E9444
:102790000522FF24F394811101C0F12C8C818770F4
:1027A00080618C838D818F7180648D838F2D90E00B
:1027B00099878887CE0101960E94870F6F2DC801E7
:1027C0000E942C0A0F5F1F4F08301105B9F660E018
:1027D00080E00E945E0864EC73E085EB93E00E9469
:1027E000770662E080E00E945E0865EB73E085EBAF
:1027F00093E00E9477060E9443130E94B20960E0B2
:1028000080E00E945E0865EA73E085EB93E00E9439
:10281000770662E080E00E945E0865E973E085EB80
:1028200093E00E9477060E94431390910E028091DC
:10283000310198130E94390CA1960FB6F894DEBFAF
:102840000FBECDBFDF91CF911F910F91FF90EF9001
:102850000895CF938091D40281FD28C00E94331047
:1028600088E793E09F938F930E940F0D8091D4028D
:1028700081608093D4020F900F90C4E02AE143E07E
:1028800050E06FEF80E00E94D60362E00E94C6092C
:102890000E94870E8BE10E94F612811102C0C15086
:1028A00069F78091D40282608093D402CF91089519
:1028B0000F931F930E94E60920910C022077203786
:1028C000B9F000E117E220E030E00617170728070B
:1028D000390798F484ED92E09F938F930E940F0D37
:1028E0000F900F908DE291E01F910F910C94F909D8
:1028F00000E61AEE20E030E0E8CF1F910F91089536
:1029000080910C02982F9077903759F0982F9295DC
:102910009F709F5F97709295907F8F78892B80939F
:102920000C0280910C02829587701F928F9383EC2A
:1029300092E09F938F930E940F0D80910B028B7FEB
:102940008F7E80930B0285EB92E09F938F930E9482
:102950000F0D88EA92E09F938F930E940F0D2998A4
:102960008DB79EB708960FB6F8949EBF0FBE8DBF69
:102970006CE080E20C94D70C80910C028F70863052
:1029800060F08FE892E09F938F930E940F0D0F905D
:102990000F9089E191E00C94F909089580910A0360
:1029A0001F928F93809109031F928F938091080348
:1029B0001F928F9380E792E09F938F930E940F0D59
:1029C00080910B02846080930B0280910C028078CE
:1029D00080930C02E091FE01F091FF018DB79EB74C
:1029E00008960FB6F8949EBF0FBE8DBF309709F0C2
:1029F0000994089580910D028F3F81F10E946A062B
:102A000060930702709308028093090290930A0270
:102A100084E692E09F938F930E940F0D90910D0298
:102A200080910A030F900F909817A1F01F929F9327
:102A30001F928F938CE492E09F938F930E940F0DCF
:102A400080910D0280930A030F900F900F900F90CA
:102A50000F900F9085E191E00C94F9090E94E6092E
:102A6000613D774081059105B8F080910B02803679
:102A700018F481E191E0F0CF8DE392E09F938F9382
:102A80000E940F0D80910B02877F80930B020F90A5
:102A90000F9089E191E0E0CF089584E392E09F9365
:102AA0008F930E940F0D8FEF80930D02EBE0F2E009
:102AB00080818860808328E143E050E06FEF80E010
:102AC0000E94D60361E00E94C6090F900F900C94FB
:102AD0002F0E809108038F3F61F089E292E09F936F
:102AE0008F930E940F0D0F900F9081E191E00C9455
:102AF000F9090E94E609613D77408105910590F052
:102B000080910B02803618F48DE091E0F0CF8BE1DC
:102B100092E09F938F930E940F0D0F900F9089E08A
:102B200091E0E5CF089583E192E09F938F930E9417
:102B30000F0D0F900F90809108038F3FA9F487E04D
:102B400092E09F938F930E940F0D23E043E050E0AB
:102B50006FEF80E00E94D60363EF71E00E945A0B92
:102B60000F900F900C942F0E08950E94E609613D7E
:102B700077408105910520F480910B0281FF2FC0E1
:102B8000809109038F3F89F08AEF91E09F938F93A3
:102B90000E940F0D80910B028E7F80930B020F908D
:102BA0000F908DE091E00C94F90980910B02803632
:102BB00058F486ED91E09F938F930E940F0D0F9034
:102BC0000F9089E191E0EFCF8AEE91E09F938F9390
:102BD0000E940F0D0F900F9089E091E0E4CF0895CF
:102BE0008CEC91E09F938F930E940F0DEBE0F2E04D
:102BF0008081897F81608083E8E0F3E08FEF8283CA
:102C0000818327E043E050E06FEF0E94D60363EF3B
:102C100071E00E945A0B0F900F900C942F0ECF93DF
:102C2000219A229A29982A9ACFB7F8948091F40190
:102C3000811124C0E7EAF6E08491EBEBF6E0949191
:102C4000E82FF0E0EE0FFF1FED56F94FA591B4917C
:102C5000EC91E92321F461E08AE00E94BE048AE05D
:102C60000E94B7038CB580618CBD8CB580648CBD2F
:102C70008DE00E94B7038BE00E94B7038091F401BE
:102C80008F5F8093F401CFBF29986EE080E20E94AD
:102C9000D70C8BE496E40197F1F763E083E20E949E
:102CA000D70C6FE584E20E94D70C6CE485E20E94A9
:102CB000D70C65E286E20E94D70C64E08DE30E94A7
:102CC000D70C8DE10E94F50C843041F063E780E57C
:102CD0000E94D70C64E08DE30E94D70C0E94FB0C8D
:102CE00081110DC08CE691E09F938F930E940F0D90
:102CF0000F900F9089E091E0CF910C94F90962E078
:102D000082E20E94D70C60E081E20E94D70C63E06F
:102D10008CE30E94D70C8FEF8093030120E045E005
:102D200063E071E08BE20E94970C20E045E063E0F5
:102D300071E08AE20E94970C20E045E063E071E0D8
:102D400080E30E94970C82EE0E94090D81EE0E94A2
:102D5000090D60E787E20E94D70C8BEB91E09F930F
:102D60008F930E940F0D80910B02806180930B0264
:102D700080910B038E7F80930B031F92C2E0CF9351
:102D800087EA91E09F938F930E940F0DC0930803F1
:102D900062E090E080E00E941D22C09108030F9045
:102DA0000F900F900F900F900F90CF3F09F18FEF82
:102DB0008C0F8E3F00F5C093080163E082E20E9411
:102DC000D70C61E081E20E94D70C0E94E80C6C2FC6
:102DD00090E080E00E941D221F92CF9380E891E056
:102DE0009F938F930E940F0D0F900F900F900F9055
:102DF00089E191E081CF1F921F9282E991E09F9338
:102E00008F930E940F0D0F900F900F900F9072CF25
:102E100082E691E09F938F930E940F0DEBE0F2E02A
:102E20008081877F8F7E8083109207021092080234
:102E30001092090210920A020F900F9044E050E0A5
:102E400070E060E088E093E00C94F5211F920F920F
:102E50000FB60F9211242F933F934F935F936F936D
:102E60007F938F939F93AF93BF93EF93FF93809143
:102E7000B900887F803609F44AC0F0F5883209F439
:102E8000A7C018F5803109F49BC0B8F4882309F471
:102E9000F9C0883009F494C0FF91EF91BF91AF91D0
:102EA0009F918F917F916F915F914F913F912F9162
:102EB0000F900FBE0F901F901895883109F488C0AD
:102EC000803251F78093A60214C0803409F49DC06B
:102ED00040F48033B9F38833F9F68093A60285EC89
:102EE000B0C0803509F485C0883509F496C08834AF
:102EF00099F60E94900BD0CF883909F48CC038F530
:102F0000883729F050F4883611F0803729F683E0AD
:102F10008093A8021092810257C0883809F47BC0C0
:102F2000803919F0803809F0B7CF80918102803262
:102F300008F071C0E091810281E08E0F80938102E0
:102F40008091BB00F0E0EF59FD4F80833DC0803B96
:102F500039F0E0F4803A09F479C0883A09F09CCF5E
:102F600084E08093A80210925E0210925D02E091CC
:102F70005B02F0915C02099580915D0281110FC0A6
:102F800081E080935D0210923B0209C0803C09F40D
:102F9000A6CF883C09F4A3CF883B09F07DCFE09110
:102FA0005E0281E08E0F80935E02F0E0E55CFD4FF3
:102FB00080818093BB0090915E0280915D0229C068
:102FC000809183028093BB0085EC8093BC0064CF2A
:102FD0009091A5028091A402981758F5E091A5025E
:102FE00081E08E0F8093A502F0E0EC57FD4F8081C9
:102FF000E9CFE091A50281E08E0F8093A502809138
:10300000BB00F0E0EC57FD4F80839091A5028091CA
:10301000A4029817C8F285E8D8CFE091A50281E014
:103020008E0F8093A5028091BB00F0E0EC57FD4F1E
:1030300080838091A70281115CCF81E0809382021E
:1030400084EA8093BC001092A80226CF85EC80937E
:10305000BC001092A80280918102803230F4E0918D
:103060008102F0E0EF59FD4F10826091810270E023
:10307000E0915F02F091600281E692E00995109282
:1030800081020ACF1092A60234CF1F920F920FB680
:103090000F9211242F933F938F939F93AF93BF93DE
:1030A0008091100290911102A0911202B09113022E
:1030B00030910F0223E0230F2D3758F50196A11D03
:1030C000B11D20930F028093100290931102A093E0
:1030D0001202B09313028091140290911502A091F4
:1030E0001602B09117020196A11DB11D8093140222
:1030F00090931502A0931602B0931702BF91AF915F
:103100009F918F913F912F910F900FBE0F901F9025
:10311000189526E8230F0296A11DB11DD2CF1F924C
:103120000F920FB60F9211242F933F934F935F93FB
:103130006F937F938F939F93AF93BF93EF93FF937F
:10314000E0913401F09135010995FF91EF91BF9124
:10315000AF919F918F917F916F915F914F913F912F
:103160002F910F900FBE0F901F9018951F920F92E6
:103170000FB60F9211242F933F934F935F936F934A
:103180007F938F939F93AF93BF93EF93FF93E091C0
:103190003201F09133010995FF91EF91BF91AF9109
:1031A0009F918F917F916F915F914F913F912F915F
:1031B0000F900FBE0F901F9018951F920F920FB691
:1031C0000F9211242F933F934F935F936F937F93AD
:1031D0008F939F93AF93BF93EF93FF9388E193E017
:1031E0000E940F07FF91EF91BF91AF919F918F9137
:1031F0007F916F915F914F913F912F910F900FBEF3
:103200000F901F9018951F920F920FB60F921124D6
:103210002F938F939F93EF93FF93E0912803F09167
:1032200029038081E0912E03F0912F0382FD1BC0C2
:103230009081809131038F5F8F73209132038217C9
:1032400041F0E0913103F0E0E85EFC4F958F809310
:103250003103FF91EF919F918F912F910F900FBEAE
:103260000F901F9018958081F4CF1F920F920FB688
:103270000F9211240F900FBE0F901F901895ECE045
:10328000F3E01382128288EE93E0A0E0B0E0848342
:103290009583A683B78328E431E031832083E8E176
:1032A000F3E01382128284839583A683B7838AE531
:1032B00091E09183808385EC90E09587848784EC0E
:1032C00090E09787868780EC90E0918B808B81ECF3
:1032D00090E0938B828B82EC90E0958B848B86ECD4
:1032E00090E0978B868B118E128E138E148E80E455
:1032F00094E00E94240C8FE194E00E94240C8EEF55
:1033000093E00E94240CEEEFF3E0168288E18583BF
:1033100069EA71E08EEC93E00E94CA0B62EB71E007
:1033200084ED93E00E94CA0B6BEB71E08AED93E0B1
:103330000E94CA0B64EC71E080EE93E00E94CA0B1D
:103340006DEC71E086EE93E00E94CA0B66ED71E0D1
:103350008CEE93E00E94CA0B6FED71E082EF93E078
:103360000E94CA0B68EE71E088EF93E00E94CA0BDE
:10337000E5EBF3E0138212828CE691E09183808387
:10338000108A8FEF87871686118A87E283871486D3
:1033900015861286118684E0828B82E0838B81E021
:1033A000848B80E1858B80E2868B80E4878B80E84C
:1033B000808F50E040E063E0CF010C9437087894B0
:1033C00084B5826084BD84B5816084BD85B582602A
:1033D00085BD85B5816085BD80916E0081608093DB
:1033E0006E00109281008091810082608093810044
:1033F0008091810081608093810080918000816054
:10340000809380008091B10084608093B1008091AE
:10341000B00081608093B00080917A0084608093D6
:103420007A0080917A00826080937A0080917A009D
:10343000816080937A0080917A00806880937A001E
:103440001092C100A89580E090E0892B11F00E94B5
:1034500000000E948F03C0E1D0E0F12CFE01F59541
:10346000E795EB51FC4FE491C0FFB0C0EF70E8303E
:1034700008F0B1C0F0E0EB51FC4FF4906F2D88E103
:1034800093E00E9431072196C23FD10539F76EEDD6
:1034900073E088E193E00E94770681EF91E00E945B
:1034A000090B1F928FEF8F931F9280E18F9380EA19
:1034B00094E09F938F930E940F0D8091D4028D7F93
:1034C0008093D4020F900F900F900F900F900F9059
:1034D00080E090E0892B51F083E994E09F938F93F3
:1034E0000E940F0D0E9400000F900F9041E050E0ED
:1034F00063E071E083ED92E00E94F5216FEF81E0DF
:1035000090E00E941D2280910C028F7880930C0223
:1035100010920202109201028DE291E00E94F909DC
:1035200089E294E19093FF018093FE011F921F9224
:103530001F921F928EE594E09F938F930E940F0D30
:103540000E946A060F900F900F900F900F900F90AF
:103550000E946A060E94DB0980910B0284FD38C03C
:1035600080910B0282FB882780F9A895882381F33C
:1035700086E894E09F938F930E940F0D0E9478132A
:1035800090910B020F900F9092FB882780F992FD8B
:103590000E94FB0C1F928F938EE694E09F938F9373
:1035A0000E940F0DA8950F900F900F900F90C0E004
:1035B000D0E00E94D3120E94B90E2097D1F30E944E
:1035C00005078823B1F30E940000F3CFE2954ECFA8
:1035D0000E946810C5CF1BEF1E0F00E06F2D88E121
:1035E00093E00E9431070F5F0117C0F34CCFCF93D8
:1035F000DF93CEEFD3E0269788819981009711F071
:103600000E94C31B83E0CE3CD807A9F7DF91CF917E
:103610000895EF920F931F93CF93DF93E80134E067
:1036200047FD34E1042E000C550B57FF03C05195A4
:1036300041955109E32E022F242FAE010E940A1F4B
:10364000CE01DF91CF911F910F91EF9008950F93CD
:103650001F93CF93DF938230910510F482E090E0C6
:10366000E0916304F091640430E020E0B0E0A0E079
:10367000309799F42115310509F44AC0281B390BFC
:1036800024303105D8F58A819B816115710589F156
:10369000FB0193838283FE0111C04081518102812D
:1036A000138148175907E0F04817590799F4109704
:1036B00061F012960C93129713961C933296CF01D9
:1036C000DF91CF911F910F910895009363041093A0
:1036D0006404F4CF2115310551F04217530738F037
:1036E000A901DB019A01BD01DF01F801C1CFEF01A2
:1036F000F9CF9093640480936304CDCFFE01E20F71
:10370000F31F819391932250310939832883D7CFB6
:103710002091610430916204232B41F420913801FF
:103720003091390130936204209361042091360175
:10373000309137012115310541F42DB73EB7409145
:103740003A0150913B01241B350BE0916104F0914B
:103750006204E217F307A0F42E1B3F0B281739076A
:1037600078F0AC014E5F5F4F2417350748F04E0FDD
:103770005F1F5093620440936104819391939FCFA4
:10378000F0E0E0E09CCFCF93DF930097E9F0FC01FD
:10379000329713821282A0916304B0916404ED0108
:1037A00030E020E01097A1F420813181820F931F37
:1037B00020916104309162042817390709F061C033
:1037C000F0936204E0936104DF91CF910895EA01E0
:1037D000CE17DF07E8F54A815B819E01411551054F
:1037E000B1F7E901FB83EA8349915991C40FD51FD1
:1037F000EC17FD0761F4808191810296840F951F7B
:10380000E90199838883828193819B838A83F0E095
:10381000E0E012968D919C9113970097B9F52D9148
:103820003C911197CD010296820F931F2091610464
:10383000309162042817390739F6309751F5109204
:10384000640410926304B0936204A0936104BCCF3B
:10385000D383C28340815181840F951FC817D90734
:1038600061F44E5F5F4F88819981480F591F5183E2
:1038700040838A819B81938382832115310509F0DE
:10388000B0CFF0936404E09363049ECFFD01DC01AC
:10389000C0CF13821282D7CFFC0188279927E894E2
:1038A00021912032E9F3293010F02E30C8F32B3269
:1038B00041F02D3239F4689404C00E94C01C820F7C
:1038C000911D219120532A30C0F31EF490958195CB
:1038D0009F4F08951F93FC0199278827BC01E89406
:1038E00011911032E9F3193010F01E30C8F31B3279
:1038F00051F01D3249F4689406C00E94AB1C610F60
:10390000711D811D911D119110531A30B0F33EF4B9
:1039100090958095709561957F4F8F4F9F4F1F9128
:103920000895BB274A3031F4992322F4BDE29095E3
:1039300081959F4F0C94EB1CBB272A3051F499239F
:1039400042F4BDE290958095709561957F4F8F4FC1
:103950009F4F0C94C91C592F482F372F262F660FC5
:10396000771F881F991F660F771F881F991F620F87
:10397000731F841F951F660F771F881F991F089557
:103980007AE0979F902D879F802D910D11240895A7
:10399000BB27FA01A62F6217710581059105330B2C
:1039A00030FB66F0AA27660F771F881F991FAA1F92
:1039B000A21710F0A21B63953850A9F7A05DAA3397
:1039C00008F0A95DA19336F7B111B1931082CA0135
:1039D0000C945721BB27FB015527AA27880F991F55
:1039E000AA1FA41710F0A41B83955051B9F7A05D2E
:1039F000AA3308F0A95DA193009779F7B111B193AB
:103A00001192CB010C945721AEE0B0E0EAE0FDE169
:103A10000C943D228C01FA018EE08C831A83098379
:103A200077FF02C060E070E8615071097E836D83AA
:103A3000A901BF01CE0101960E94301D4D815E811A
:103A400057FD0AC02F813885421753070CF49A019D
:103A5000020F131FF80110822E96E4E00C945922F5
:103A6000ABE0B0E0E6E3FDE10C942F227C013B01EA
:103A70008A01FC0117821682838181FFC8C1CE01B1
:103A800001965C01F7019381F30193FD859193FF0A
:103A900081913F01882309F453C1853239F493FDA4
:103AA000859193FF81913F01853229F4B70190E020
:103AB0000E946721E7CF912C212C312CFFE1F315D7
:103AC00038F08B3211F190F4803209F1833229F110
:103AD00037FC3CC020ED280F2A3050F536FE20C0C0
:103AE0008AE0989E200D1124922E06C08D3291F00E
:103AF000803371F7689430F8F30193FD859193FF5B
:103B000081913F018111DACF21C0689431F8689426
:103B100032F8F2CF689433F8EFCF689434F8ECCFF2
:103B2000EAE02E9E200D1124222E689435F8E4CF71
:103B30008E3229F436FC04C1689436F8DDCF8C3619
:103B400019F4689437F8D8CF8836B1F2982F9F7D52
:103B500095549330E0F08336A1F18337C1F183357A
:103B600009F063C02801F2E04F0E511CF801C0803B
:103B7000D180692D70E036FC02C06FEF7FEFC60187
:103B80000E9441214C01689437F882010AC00C5F01
:103B90001F4FFFE3F98388248394912C6501E894F7
:103BA00037F833FE2DC0522C8114910471F5552045
:103BB00009F468CFB70180E290E00E9467215A942F
:103BC000F6CFF801808189830E5F1F4FE4CF280173
:103BD000F2E04F0E511CF801C080D180692D70E0D9
:103BE00036FC02C06FEF7FEFC6010E944C214C01F2
:103BF0008201D5CFB70180E290E00E9467212A942C
:103C00002814190409F0B0F7CECFF60137FC8591DE
:103C100037FE81916F01B70190E00E94672151103A
:103C20005A94F1E08F1A9108BFCF843619F0893683
:103C300009F077C0F80137FE6BC060817181828125
:103C400093810C5F1F4FF32DFF763F2E97FF09C026
:103C500090958095709561957F4F8F4F9F4F689499
:103C600037F82AE030E0A5010E949721C82ECA1833
:103C70008C2C432C36FE0CC0E89440F8C91440F458
:103C800034FE05C032FC03C0F32DFE7E4F2E892C7E
:103C900044FE95C0FE01EC0DF11D8081803309F0DA
:103CA00087C0242D297E422E842D8870582E43FCF7
:103CB00095C040FE8FC09C2C821418F42C0C922CC2
:103CC000981844FE91C0B70180E390E00E946721FC
:103CD00042FE09C088E790E041FE02C088E590E01E
:103CE000B7010E946721C91408F48AC0CA94D12C74
:103CF0009FEFC91AD90ACA0CDB1CF60182916F0129
:103D0000B70190E00E946721AC14BD04B1F74FCF1A
:103D100060817181072E000C880B990B0E5F1F4F7D
:103D200092CFD32CE894D4F82AE030E0853739F1EB
:103D3000232D297FD22E8F3601F148F48835A9F042
:103D4000F701868197812B96E2E10C944B22803714
:103D500049F08837A9F7D4FE02C06894D2F820E170
:103D600030E00DC06894D4F8F6CF34FE03C0822F43
:103D70008660D82E20E132E002C028E030E0F80171
:103D8000D7FE0FC060817181828193810C5F1F4FCC
:103D9000A5010E949721C82ECA183D2CE89437F837
:103DA00067CF6081718190E080E00E5F1F4FF0CFA0
:103DB00042FC02C0839478CF8394839475CF842D82
:103DC000867809F471CFF6CFB70180E290E00E94C7
:103DD000672183948214C0F3512C73CF522C58184E
:103DE000821408F46ECFF8CF842D867809F47BCF47
:103DF0008BE241FE80E247FC8DE2B70190E071CF9B
:103E0000B70180E390E00E9467219A946CCF8FEF16
:103E10009FEF99CFA9E0B0E0E0E1FFE10C943522FB
:103E20006A01F22EB02E102FFBE3AF2EA01608F47D
:103E30001BE31F5F012F27E0AE014F5F5F4F0E9422
:103E40006920BC018981982F9970913009F43FC095
:103E50009BE2E1FC04C09E2D9170E0FC3AC05E2D17
:103E60005071E82FE87083FF46C084E0911101C0D3
:103E700083E0EF2DE81B8F1508F0E0E0D6018E2FD0
:103E800020E2552351F1992329F0D6019C93C601D4
:103E900001966C0196012D5F3F4FE2FE24C08EE437
:103EA000D6018C9391E411969C93119712968C9362
:103EB000D9018E2F90E281111BC0E20FF32FF11D6B
:103EC00010828EEF9FEF2996ECE00C9451229DE238
:103ED000C6CF90E2C4CF2D9381508111FCCFCE0E7E
:103EE000D11CE0E0D0CF8EE6D6018C9391E6DBCFFB
:103EF0009D938150E0CF482F447082FF3DC084E005
:103F0000911101C083E08F1510F4EF2DE81BD6014D
:103F10008E2F20E2552309F1992329F0D6019C9395
:103F2000C60101966C0196012D5F3F4FE2FE1BC05A
:103F300089E4D6018C938EE411968C93119786E4D4
:103F400012968C93D9018E2F90E2882309F4B5CF75
:103F50009D938150FACF2D9381508111FCCFCE0ECD
:103F6000D11CE0E0D9CF89E6D6018C938EE611967C
:103F70008C93119786E6E4CF9B0177FF02C030E077
:103F800020E0A1E0B0E0911102C0B0E0A0E0F901B2
:103F90003196AE0FBF1F8B2C912CBB2009F461C052
:103FA0005401EFEFAE1ABE0AAA0DBB1DFA161B068E
:103FB00019F014F04F2D4A1B511188C0E3FC59C071
:103FC0007601A42FB0E2A1114FC0C40ED11C9923D9
:103FD00009F45BC040E0D6011196F60190836D01B3
:103FE000552309F448C0012F060F9A81582F5071AC
:103FF00084FF03C0913309F4015010160CF047C040
:10400000093008F008E0EEE2FE2E5B01A01AB108CC
:1040100085019194819491082F3F320729F4D601AC
:10402000FC92F60131966F016217730794F1021743
:1040300013077CF5DB01A21BB30BAA24A394B12CBC
:10404000AC0EBD1EAA0DBB1D11968C9121503109DD
:10405000D601119628153905F4F0F60180836D011B
:10406000DBCFB12CA12CA0CFF701B1937F01A150E0
:10407000AACF9111B0CFD601942F50E302C05D9327
:1040800091509111FCCFC40ED11C40E0ACCF01E0A7
:10409000BACF80E3DBCF6217730731F4963388F42D
:1040A000953311F4552369F0F6018083FD01842FC7
:1040B00090E2811108C0A40FB11D1C9290E080E035
:1040C00002CF81E3F1CF91938150F3CF911183CF50
:1040D0008ACF283008F027E03327DA01990F311D05
:1040E00087FD916000966105710539F432602E5F9D
:1040F0003D9330E32A95E1F708959F3F30F08038F3
:104100007105610509F03C5F3C5F3D93913008F01B
:104110008068911DDF93CF931F930F93FF92EF92CF
:10412000192F987F9695E92F96959695E90FFF2779
:10413000EE53FF4F99273327EE24FF24A701E70111
:1041400005900894079428F4360FE71EF81E491FBF
:10415000511D660F771F881F991F0694A1F70590C0
:10416000079428F4E70EF81E491F561FC11D770F4C
:10417000881F991F661F0694A1F70590079428F4DD
:10418000F80E491F561FC71FD11D880F991F661FA4
:10419000771F0694A1F70590079420F4490F561F46
:1041A000C71FD81F990F661F771F881F0694A9F78E
:1041B00084911095177041F0D695C79557954795FE
:1041C000F794E7941A95C1F7E8E6F0E06894159043
:1041D000159135916591959105907FE27395E11860
:1041E000F10A430B560BC90BD009C0F7E10CF11EC5
:1041F000431F561FC91FD01D7EF4703311F48A95DA
:10420000E6CFE894015030F0080F0AF400270217B7
:1042100008F4202F2395022F7A3328F079E37D9339
:104220002A95E9F710C07D932A9589F6069497950B
:104230006795379517951794E118F10A430B560BBC
:10424000C90BD00998F023957E9173957A3308F0C5
:1042500070E37C932013B8F77E9170617D9330F00A
:10426000839571E37D9370E32A95E1F71124EF9034
:10427000FF900F911F91CF91DF91992787FD909526
:104280000895FC010590615070400110D8F78095A9
:1042900090958E0F9F1F0895FC0161507040019012
:1042A0000110D8F7809590958E0F9F1F0895DC011F
:1042B000FC01672F71917723E1F7329704C07C915D
:1042C0006D9370836291AE17BF07C8F308950F9383
:1042D0001F93CF93DF93182F092FEB018B8181FD63
:1042E00009C01FEF0FEF812F902FDF91CF911F910A
:1042F0000F91089582FF14C02E813F818C819D8192
:10430000281739073CF4E881F981CF010196998398
:10431000888310838E819F8101969F838E83E3CF54
:10432000E885F985812F0995892BA1F3DACFFA0168
:10433000AA27283051F1203181F1E8946F936E7FE4
:104340006E5F7F4F8F4F9F4FAF4FB1E03ED0B4E0D5
:104350003CD0670F781F891F9A1FA11D680F791F16
:104360008A1F911DA11D6A0F711D811D911DA11D27
:1043700020D009F468943F912AE0269F1124301937
:10438000305D3193DEF6CF010895462F4770405DD2
:104390004193B3E00FD0C9F7F6CF462F4F70405D81
:1043A0004A3318F0495D31FD4052419302D0A9F7DC
:1043B000EACFB4E0A6959795879577956795BA95D6
:1043C000C9F700976105710508959B01AC010A2E9C
:1043D00006945795479537952795BA95C9F7620F73
:1043E000731F841F951FA01D0895DC01CB01FC01E4
:1043F000F999FECF06C0F2BDE1BDF89A319600B43E
:104400000D9241505040B8F70895F999FECF92BDF2
:1044100081BDF89A992780B50895DC01A40FB51FD6
:104420004150504048F0CB01840F951F2E910E94BF
:104430001E2241505040D0F70895262FF999FECF03
:1044400092BD81BDF89A019700B4021639F01FBAE7
:1044500020BD0FB6F894FA9AF99A0FBE08952F92DC
:104460003F924F925F926F927F928F929F92AF9204
:10447000BF92CF92DF92EF92FF920F931F93CF9351
:10448000DF93CDB7DEB7CA1BDB0B0FB6F894DEBFE8
:104490000FBECDBF09942A88398848885F846E840E
:1044A0007D848C849B84AA84B984C884DF80EE8058
:1044B000FD800C811B81AA81B981CE0FD11D0FB661
:1044C000F894DEBF0FBECDBFED010895A1E21A2E14
:1044D000AA1BBB1BFD010DC0AA1FBB1FEE1FFF1FA8
:1044E000A217B307E407F50720F0A21BB30BE40BF8
:1044F000F50B661F771F881F991F1A9469F760953F
:104500007095809590959B01AC01BD01CF010895F8
:10451000EE0FFF1F0590F491E02D0994B0E0A0E0AC
:10452000E4E9F2E20C9431228C01009751F4CB01C2
:104530000E94271B8C01C801CDB7DEB7E0E10C94C7
:104540004D22FC01E60FF71F9C0122503109E217B2
:10455000F30708F49DC0D901CD91DC911197C617DE
:10456000D70798F0C530D10530F3CE0104978617F0
:10457000970708F3C61BD70B2297C193D1936D936E
:104580007C93CF010E94C31BD6CF5B01AC1ABD0A3E
:104590004C018C0E9D1EA0916304B0916404512CBB
:1045A000412CF12CE12C109731F580916104909110
:1045B00062048815990509F05CC04616570608F094
:1045C00058C08091360190913701009741F48DB722
:1045D0009EB740913A0150913B01841B950BE8171F
:1045E000F90708F055C0F0936204E0936104F90103
:1045F00071836083A0CF8D919C91119712966C90DE
:10460000129713967C901397A815B90559F56C016C
:1046100042E0C40ED11CCA14DB0420F1AC014A19DB
:104620005B09DA011296159780F0628273825183DA
:104630004083D9016D937C93E114F10471F0D701AB
:104640001396FC93EE93129776CF22968C0F9D1FB4
:10465000F90191838083F301EFCFF0936404E09339
:10466000630469CF4816590608F42C017D01D30173
:104670009ACFCB010E94271B7C01009749F0AE0125
:10468000B8010E945023C8010E94C31B870153CF69
:1046900010E000E050CF81E090E0F8940C946F239C
:1046A000FB01DC0102C001900D9241505040D8F74F
:1046B0000895FB01DC0101900D920020E1F70895BF
:1046C000FB01DC014150504048F001900D92002068
:1046D000C9F701C01D9241505040E0F7089513E022
:1046E000C4E6D3E004C0FE010E9488222196C536AC
:0846F000D107C9F7F894FFCFD0
:1046F800FFFFFF00FCE1A8A8FF8014581493156978
:10470800154D15FA14CE14BC14F015B5150000009B
:104718000A1B1B1F1F1F1F15150404040408170F6D
:1047280016FF7606760600006504800000401454E3
:10473800004010500000000066043904AF090F045F
:1047480032041F0410040000000031079B06C8064D
:104758007E07F906D706EB06000000004B089B060B
:10476800AF09AE09620937081E08FF0720003C4E52
:104778004F4E43453E004F4B004E41434B003F00D8
:104788002100322E332E320052454C4159205245D9
:104798004D4F544500312E300052656C61697320CD
:1047A800310052656C61697320320052656C616931
:1047B8007320330052656C61697320340052656C54
:1047C80061697320350052656C6169732036005247
:1047D800656C61697320370052656C6169732038B4
:0447E800000D0A00B6
:00000001FF
